{
  "contractName": "Ballot",
  "abi": [
    {
      "constant": true,
      "inputs": [],
      "name": "ballotName",
      "outputs": [
        {
          "name": "",
          "type": "string"
        }
      ],
      "payable": false,
      "stateMutability": "view",
      "type": "function"
    },
    {
      "constant": true,
      "inputs": [],
      "name": "access_level",
      "outputs": [
        {
          "name": "",
          "type": "uint8"
        }
      ],
      "payable": false,
      "stateMutability": "view",
      "type": "function"
    },
    {
      "constant": true,
      "inputs": [],
      "name": "totalShares",
      "outputs": [
        {
          "name": "",
          "type": "uint256"
        }
      ],
      "payable": false,
      "stateMutability": "view",
      "type": "function"
    },
    {
      "constant": true,
      "inputs": [],
      "name": "totalVoter",
      "outputs": [
        {
          "name": "",
          "type": "uint256"
        }
      ],
      "payable": false,
      "stateMutability": "view",
      "type": "function"
    },
    {
      "constant": true,
      "inputs": [],
      "name": "proposal",
      "outputs": [
        {
          "name": "",
          "type": "string"
        }
      ],
      "payable": false,
      "stateMutability": "view",
      "type": "function"
    },
    {
      "constant": true,
      "inputs": [],
      "name": "totalShareVote",
      "outputs": [
        {
          "name": "",
          "type": "uint256"
        }
      ],
      "payable": false,
      "stateMutability": "view",
      "type": "function"
    },
    {
      "constant": true,
      "inputs": [
        {
          "name": "",
          "type": "address"
        }
      ],
      "name": "voters",
      "outputs": [
        {
          "name": "shares_held",
          "type": "uint256"
        },
        {
          "name": "voted",
          "type": "bool"
        },
        {
          "name": "proxy",
          "type": "address"
        },
        {
          "name": "user_level",
          "type": "uint8"
        },
        {
          "name": "set",
          "type": "bool"
        }
      ],
      "payable": false,
      "stateMutability": "view",
      "type": "function"
    },
    {
      "constant": true,
      "inputs": [],
      "name": "state",
      "outputs": [
        {
          "name": "",
          "type": "uint8"
        }
      ],
      "payable": false,
      "stateMutability": "view",
      "type": "function"
    },
    {
      "constant": true,
      "inputs": [],
      "name": "ballotAddress",
      "outputs": [
        {
          "name": "",
          "type": "address"
        }
      ],
      "payable": false,
      "stateMutability": "view",
      "type": "function"
    },
    {
      "constant": true,
      "inputs": [],
      "name": "totalVote",
      "outputs": [
        {
          "name": "",
          "type": "uint256"
        }
      ],
      "payable": false,
      "stateMutability": "view",
      "type": "function"
    },
    {
      "constant": true,
      "inputs": [],
      "name": "finalResult",
      "outputs": [
        {
          "name": "",
          "type": "uint256"
        }
      ],
      "payable": false,
      "stateMutability": "view",
      "type": "function"
    },
    {
      "inputs": [
        {
          "name": "_ballotName",
          "type": "string"
        },
        {
          "name": "_proposal",
          "type": "string"
        },
        {
          "name": "_access_level",
          "type": "uint8"
        }
      ],
      "payable": false,
      "stateMutability": "nonpayable",
      "type": "constructor"
    },
    {
      "anonymous": false,
      "inputs": [
        {
          "indexed": false,
          "name": "voter",
          "type": "address"
        }
      ],
      "name": "voterAdded",
      "type": "event"
    },
    {
      "anonymous": false,
      "inputs": [],
      "name": "voteStarted",
      "type": "event"
    },
    {
      "anonymous": false,
      "inputs": [
        {
          "indexed": false,
          "name": "finalResult",
          "type": "uint256"
        }
      ],
      "name": "voteEnded",
      "type": "event"
    },
    {
      "anonymous": false,
      "inputs": [
        {
          "indexed": false,
          "name": "voter",
          "type": "address"
        }
      ],
      "name": "voteDone",
      "type": "event"
    },
    {
      "constant": false,
      "inputs": [
        {
          "name": "_userAddress",
          "type": "address"
        },
        {
          "name": "_shares_held",
          "type": "uint256"
        },
        {
          "name": "_manager",
          "type": "bool"
        },
        {
          "name": "_director",
          "type": "bool"
        }
      ],
      "name": "register_user",
      "outputs": [],
      "payable": false,
      "stateMutability": "nonpayable",
      "type": "function"
    },
    {
      "constant": false,
      "inputs": [
        {
          "name": "to",
          "type": "address"
        }
      ],
      "name": "assign_proxy",
      "outputs": [],
      "payable": false,
      "stateMutability": "nonpayable",
      "type": "function"
    },
    {
      "constant": false,
      "inputs": [
        {
          "name": "_shares_added",
          "type": "uint256"
        }
      ],
      "name": "add_shares",
      "outputs": [],
      "payable": false,
      "stateMutability": "nonpayable",
      "type": "function"
    },
    {
      "constant": true,
      "inputs": [],
      "name": "view_shares",
      "outputs": [
        {
          "name": "shares_",
          "type": "uint256"
        }
      ],
      "payable": false,
      "stateMutability": "view",
      "type": "function"
    },
    {
      "constant": false,
      "inputs": [],
      "name": "startVote",
      "outputs": [],
      "payable": false,
      "stateMutability": "nonpayable",
      "type": "function"
    },
    {
      "constant": false,
      "inputs": [
        {
          "name": "_choice",
          "type": "bool"
        }
      ],
      "name": "Vote",
      "outputs": [
        {
          "name": "voted",
          "type": "bool"
        }
      ],
      "payable": false,
      "stateMutability": "nonpayable",
      "type": "function"
    },
    {
      "constant": false,
      "inputs": [],
      "name": "endVote",
      "outputs": [],
      "payable": false,
      "stateMutability": "nonpayable",
      "type": "function"
    }
  ],
  "bytecode": "0x608060405260008055600060015560006002556000600355600060045560006005553480156200002e57600080fd5b5060405162001faa38038062001faa833981018060405260608110156200005457600080fd5b8101908080516401000000008111156200006d57600080fd5b828101905060208101848111156200008457600080fd5b8151856001820283011164010000000082111715620000a257600080fd5b50509291906020018051640100000000811115620000bf57600080fd5b82810190506020810184811115620000d657600080fd5b8151856001820283011164010000000082111715620000f457600080fd5b50509291906020018051906020019092919050505033600660006101000a81548173ffffffffffffffffffffffffffffffffffffffff021916908373ffffffffffffffffffffffffffffffffffffffff160217905550826007908051906020019062000162929190620001c5565b5081600890805190602001906200017b929190620001c5565b5080600960006101000a81548160ff021916908360ff1602179055506000600960016101000a81548160ff02191690836002811115620001b757fe5b021790555050505062000274565b828054600181600116156101000203166002900490600052602060002090601f016020900481019282601f106200020857805160ff191683800117855562000239565b8280016001018555821562000239579182015b82811115620002385782518255916020019190600101906200021b565b5b5090506200024891906200024c565b5090565b6200027191905b808211156200026d57600081600090555060010162000253565b5090565b90565b611d2680620002846000396000f3fe608060405234801561001057600080fd5b50600436106101165760003560e01c8063b5f7742b116100a2578063e1590d7d11610071578063e1590d7d14610449578063f1cea4c714610491578063f3a8286f146104af578063f4042448146104cd578063faa2e9661461053357610116565b8063b5f7742b14610385578063b9223946146103c9578063c19d93fb146103d3578063d8335b53146103ff57610116565b80636332abc9116100e95780636332abc9146101ea578063753ec1031461020857806394ad413a1461028b5780639cd49f7e146102a9578063a3ec138d146102d757610116565b80631b26586c1461011b5780631db38f511461019e5780633a98ef39146101c25780634c0a6af0146101e0575b600080fd5b610123610551565b6040518080602001828103825283818151815260200191508051906020019080838360005b83811015610163578082015181840152602081019050610148565b50505050905090810190601f1680156101905780820380516001836020036101000a031916815260200191505b509250505060405180910390f35b6101a66105ef565b604051808260ff1660ff16815260200191505060405180910390f35b6101ca610602565b6040518082815260200191505060405180910390f35b6101e8610608565b005b6101f2610780565b6040518082815260200191505060405180910390f35b610210610786565b6040518080602001828103825283818151815260200191508051906020019080838360005b83811015610250578082015181840152602081019050610235565b50505050905090810190601f16801561027d5780820380516001836020036101000a031916815260200191505b509250505060405180910390f35b610293610824565b6040518082815260200191505060405180910390f35b6102d5600480360360208110156102bf57600080fd5b810190808035906020019092919050505061082a565b005b610319600480360360208110156102ed57600080fd5b81019080803573ffffffffffffffffffffffffffffffffffffffff169060200190929190505050610b10565b60405180868152602001851515151581526020018473ffffffffffffffffffffffffffffffffffffffff1673ffffffffffffffffffffffffffffffffffffffff1681526020018360ff1660ff168152602001821515151581526020019550505050505060405180910390f35b6103c76004803603602081101561039b57600080fd5b81019080803573ffffffffffffffffffffffffffffffffffffffff169060200190929190505050610b8d565b005b6103d1611084565b005b6103db61124b565b604051808260028111156103eb57fe5b60ff16815260200191505060405180910390f35b61040761125e565b604051808273ffffffffffffffffffffffffffffffffffffffff1673ffffffffffffffffffffffffffffffffffffffff16815260200191505060405180910390f35b6104776004803603602081101561045f57600080fd5b81019080803515159060200190929190505050611284565b604051808215151515815260200191505060405180910390f35b61049961178e565b6040518082815260200191505060405180910390f35b6104b7611794565b6040518082815260200191505060405180910390f35b610531600480360360808110156104e357600080fd5b81019080803573ffffffffffffffffffffffffffffffffffffffff1690602001909291908035906020019092919080351515906020019092919080351515906020019092919050505061179a565b005b61053b611bb0565b6040518082815260200191505060405180910390f35b60078054600181600116156101000203166002900480601f0160208091040260200160405190810160405280929190818152602001828054600181600116156101000203166002900480156105e75780601f106105bc576101008083540402835291602001916105e7565b820191906000526020600020905b8154815290600101906020018083116105ca57829003601f168201915b505050505081565b600960009054906101000a900460ff1681565b60045481565b600080600281111561061657fe5b600960019054906101000a900460ff16600281111561063157fe5b14610687576040517f08c379a0000000000000000000000000000000000000000000000000000000008152600401808060200182810382526027815260200180611c686027913960400191505060405180910390fd5b600660009054906101000a900473ffffffffffffffffffffffffffffffffffffffff1673ffffffffffffffffffffffffffffffffffffffff163373ffffffffffffffffffffffffffffffffffffffff161461072d576040517f08c379a000000000000000000000000000000000000000000000000000000000815260040180806020018281038252603b815260200180611c2d603b913960400191505060405180910390fd5b6001600960016101000a81548160ff0219169083600281111561074c57fe5b02179055507fd0dc01800a369fef30d3fced5275b8b916549867622e79efca5245c479fda4ea60405160405180910390a150565b60025481565b60088054600181600116156101000203166002900480601f01602080910402602001604051908101604052809291908181526020018280546001816001161561010002031660029004801561081c5780601f106107f15761010080835404028352916020019161081c565b820191906000526020600020905b8154815290600101906020018083116107ff57829003601f168201915b505050505081565b60055481565b600080600281111561083857fe5b600960019054906101000a900460ff16600281111561085357fe5b146108a9576040517f08c379a0000000000000000000000000000000000000000000000000000000008152600401808060200182810382526027815260200180611c686027913960400191505060405180910390fd5b6000600a60003373ffffffffffffffffffffffffffffffffffffffff1673ffffffffffffffffffffffffffffffffffffffff168152602001908152602001600020905060008310610907578281600001600082825401925050819055505b60003390505b600073ffffffffffffffffffffffffffffffffffffffff16600a60008373ffffffffffffffffffffffffffffffffffffffff1673ffffffffffffffffffffffffffffffffffffffff16815260200190815260200160002060010160019054906101000a900473ffffffffffffffffffffffffffffffffffffffff1673ffffffffffffffffffffffffffffffffffffffff1614610aff57600a60008273ffffffffffffffffffffffffffffffffffffffff1673ffffffffffffffffffffffffffffffffffffffff16815260200190815260200160002060010160019054906101000a900473ffffffffffffffffffffffffffffffffffffffff16905083600a60008373ffffffffffffffffffffffffffffffffffffffff1673ffffffffffffffffffffffffffffffffffffffff168152602001908152602001600020600001600082825401925050819055503373ffffffffffffffffffffffffffffffffffffffff168173ffffffffffffffffffffffffffffffffffffffff161415610afa576040517f08c379a00000000000000000000000000000000000000000000000000000000081526004018080602001828103825260198152602001807f466f756e64206c6f6f7020696e2064656c65676174696f6e2e0000000000000081525060200191505060405180910390fd5b61090d565b836004540160048190555050505050565b600a6020528060005260406000206000915090508060000154908060010160009054906101000a900460ff16908060010160019054906101000a900473ffffffffffffffffffffffffffffffffffffffff16908060010160159054906101000a900460ff16908060010160169054906101000a900460ff16905085565b6000806002811115610b9b57fe5b600960019054906101000a900460ff166002811115610bb657fe5b14610c0c576040517f08c379a0000000000000000000000000000000000000000000000000000000008152600401808060200182810382526027815260200180611c686027913960400191505060405180910390fd5b6000600a60003373ffffffffffffffffffffffffffffffffffffffff1673ffffffffffffffffffffffffffffffffffffffff16815260200190815260200160002090508060010160009054906101000a900460ff1615610cd4576040517f08c379a00000000000000000000000000000000000000000000000000000000081526004018080602001828103825260128152602001807f596f7520616c726561647920766f7465642e000000000000000000000000000081525060200191505060405180910390fd5b60011515600a60008573ffffffffffffffffffffffffffffffffffffffff1673ffffffffffffffffffffffffffffffffffffffff16815260200190815260200160002060010160169054906101000a900460ff16151514610d80576040517f08c379a0000000000000000000000000000000000000000000000000000000008152600401808060200182810382526025815260200180611cb36025913960400191505060405180910390fd5b3373ffffffffffffffffffffffffffffffffffffffff168373ffffffffffffffffffffffffffffffffffffffff161415610e22576040517f08c379a000000000000000000000000000000000000000000000000000000000815260040180806020018281038252601e8152602001807f53656c662d64656c65676174696f6e20697320646973616c6c6f7765642e000081525060200191505060405180910390fd5b5b600073ffffffffffffffffffffffffffffffffffffffff16600a60008573ffffffffffffffffffffffffffffffffffffffff1673ffffffffffffffffffffffffffffffffffffffff16815260200190815260200160002060010160019054906101000a900473ffffffffffffffffffffffffffffffffffffffff1673ffffffffffffffffffffffffffffffffffffffff1614610fc557600a60008473ffffffffffffffffffffffffffffffffffffffff1673ffffffffffffffffffffffffffffffffffffffff16815260200190815260200160002060010160019054906101000a900473ffffffffffffffffffffffffffffffffffffffff1692503373ffffffffffffffffffffffffffffffffffffffff168373ffffffffffffffffffffffffffffffffffffffff161415610fc0576040517f08c379a00000000000000000000000000000000000000000000000000000000081526004018080602001828103825260198152602001807f466f756e64206c6f6f7020696e2064656c65676174696f6e2e0000000000000081525060200191505060405180910390fd5b610e23565b60018160010160006101000a81548160ff021916908315150217905550828160010160016101000a81548173ffffffffffffffffffffffffffffffffffffffff021916908373ffffffffffffffffffffffffffffffffffffffff1602179055506000600a60008573ffffffffffffffffffffffffffffffffffffffff1673ffffffffffffffffffffffffffffffffffffffff16815260200190815260200160002090508160000154816000016000828254019250508190555050505050565b600180600281111561109257fe5b600960019054906101000a900460ff1660028111156110ad57fe5b14611103576040517f08c379a0000000000000000000000000000000000000000000000000000000008152600401808060200182810382526027815260200180611c686027913960400191505060405180910390fd5b600660009054906101000a900473ffffffffffffffffffffffffffffffffffffffff1673ffffffffffffffffffffffffffffffffffffffff163373ffffffffffffffffffffffffffffffffffffffff16146111a9576040517f08c379a000000000000000000000000000000000000000000000000000000000815260040180806020018281038252603b815260200180611c2d603b913960400191505060405180910390fd5b6002600960016101000a81548160ff021916908360028111156111c857fe5b02179055506002600554816111d957fe5b0460005411156111f057600260018190555061120f565b6002600554816111fc57fe5b04600054101561120e57600180819055505b5b7fb43a401dcdbe02a8afa41feb6c651425997908d1a4b79cf505188ba1dd3fd8726001546040518082815260200191505060405180910390a150565b600960019054906101000a900460ff1681565b600660009054906101000a900473ffffffffffffffffffffffffffffffffffffffff1681565b6000600180600281111561129457fe5b600960019054906101000a900460ff1660028111156112af57fe5b14611305576040517f08c379a0000000000000000000000000000000000000000000000000000000008152600401808060200182810382526027815260200180611c686027913960400191505060405180910390fd5b600a60003373ffffffffffffffffffffffffffffffffffffffff1673ffffffffffffffffffffffffffffffffffffffff16815260200190815260200160002060010160009054906101000a900460ff1660001515811515146113cf576040517f08c379a000000000000000000000000000000000000000000000000000000000815260040180806020018281038252601b8152602001807f557365722068617320616c726561647920766f746564206f6e6365000000000081525060200191505060405180910390fd5b6000809050600a60003373ffffffffffffffffffffffffffffffffffffffff1673ffffffffffffffffffffffffffffffffffffffff16815260200190815260200160002060010160169054906101000a900460ff1680156114be5750600073ffffffffffffffffffffffffffffffffffffffff16600a60003373ffffffffffffffffffffffffffffffffffffffff1673ffffffffffffffffffffffffffffffffffffffff16815260200190815260200160002060010160019054906101000a900473ffffffffffffffffffffffffffffffffffffffff1673ffffffffffffffffffffffffffffffffffffffff16145b801561152e5750600960009054906101000a900460ff1660ff16600a60003373ffffffffffffffffffffffffffffffffffffffff1673ffffffffffffffffffffffffffffffffffffffff16815260200190815260200160002060010160159054906101000a900460ff1660ff1610155b15611720576001600a60003373ffffffffffffffffffffffffffffffffffffffff1673ffffffffffffffffffffffffffffffffffffffff16815260200190815260200160002060010160006101000a81548160ff021916908315150217905550611596611bfa565b33816000019073ffffffffffffffffffffffffffffffffffffffff16908173ffffffffffffffffffffffffffffffffffffffff168152505085816020019015159081151581525050851561163657600a60003373ffffffffffffffffffffffffffffffffffffffff1673ffffffffffffffffffffffffffffffffffffffff1681526020019081526020016000206000015460008082825401925050819055505b80600b6000600554815260200190815260200160002060008201518160000160006101000a81548173ffffffffffffffffffffffffffffffffffffffff021916908373ffffffffffffffffffffffffffffffffffffffff16021790555060208201518160000160146101000a81548160ff021916908315150217905550905050600a60003373ffffffffffffffffffffffffffffffffffffffff1673ffffffffffffffffffffffffffffffffffffffff1681526020019081526020016000206000015460056000828254019250508190555060036000815480929190600101919050555060019150505b7f55c65cf9526efdf6c2252fe9757889dbd93e10172cad0f2edb1df619c88dbf7d33604051808273ffffffffffffffffffffffffffffffffffffffff1673ffffffffffffffffffffffffffffffffffffffff16815260200191505060405180910390a1809350505050919050565b60035481565b60015481565b60008060028111156117a857fe5b600960019054906101000a900460ff1660028111156117c357fe5b14611819576040517f08c379a0000000000000000000000000000000000000000000000000000000008152600401808060200182810382526027815260200180611c686027913960400191505060405180910390fd5b8360008111611873576040517f08c379a0000000000000000000000000000000000000000000000000000000008152600401808060200182810382526024815260200180611c8f6024913960400191505060405180910390fd5b858073ffffffffffffffffffffffffffffffffffffffff163373ffffffffffffffffffffffffffffffffffffffff16146118f8576040517f08c379a0000000000000000000000000000000000000000000000000000000008152600401808060200182810382526023815260200180611cd86023913960400191505060405180910390fd5b6000600a60008973ffffffffffffffffffffffffffffffffffffffff1673ffffffffffffffffffffffffffffffffffffffff16815260200190815260200160002090506000600190508160010160169054906101000a900460ff16156119c6576040517f08c379a00000000000000000000000000000000000000000000000000000000081526004018080602001828103825260148152602001807f566f74657220616c72656164792065786973747300000000000000000000000081525060200191505060405180910390fd5b6001151587151514156119d857600390505b6001151586151514156119ea57600590505b6040518060a00160405280898152602001600015158152602001600073ffffffffffffffffffffffffffffffffffffffff1681526020018260ff16815260200160011515815250600a60008b73ffffffffffffffffffffffffffffffffffffffff1673ffffffffffffffffffffffffffffffffffffffff1681526020019081526020016000206000820151816000015560208201518160010160006101000a81548160ff02191690831515021790555060408201518160010160016101000a81548173ffffffffffffffffffffffffffffffffffffffff021916908373ffffffffffffffffffffffffffffffffffffffff16021790555060608201518160010160156101000a81548160ff021916908360ff16021790555060808201518160010160166101000a81548160ff02191690831515021790555090505087600454016004819055506002600081548092919060010191905055507fb9e5f9042e6c6eb94817f660cfa81afea9585e59d72bfc3348a2305cbd33e13389604051808273ffffffffffffffffffffffffffffffffffffffff1673ffffffffffffffffffffffffffffffffffffffff16815260200191505060405180910390a1505050505050505050565b6000600a60003373ffffffffffffffffffffffffffffffffffffffff1673ffffffffffffffffffffffffffffffffffffffff16815260200190815260200160002060000154905090565b6040518060400160405280600073ffffffffffffffffffffffffffffffffffffffff168152602001600015158152509056fe54686973206f7065726174696f6e2063616e206f6e6c792062652063617272696564206f757420627920612075736572207468656d73656c7665734e6f742074686520636f727265637420737461746520666f7220746865206f7065726174696f6e55736572206d75737420686176652073686172657320696e2074686520636f6d70616e7950726f787920566f746572206d757374206265207265676973746572656420766f7465722e4120757365722063616e206f6e6c79207265676973746572207468656d73656c766573a165627a7a723058201e4104f4790db8b26c01cb12397e82d11660482eaa694558529d65213df72dd10029",
  "source": "pragma solidity ^0.5.1;\ncontract Ballot {\n\n    struct Voter {\n        uint shares_held;\n        bool voted;\n        address proxy;\n        uint8 user_level;\n         /*\n            voter = 1\n            manager = 2\n            director = 4\n            not allowed: 7 (voter+manager+director), 6 (manager+director), or any other values except\n            allowed : 5 (director+voter), 3 (manager+director),1 (voter)\n        */\n        bool set; // This boolean is used to differentiate between unset and zero struct values\n    }\n\n    struct vote{\n        address voterAddress;\n        bool choice;\n    }\n\n    uint private countResult = 0;   //total 'yes' votes during voting period\n    uint public finalResult = 0;    //stores the final number of 'yes' votes. It remains 0 until voting closes.\n    uint public totalVoter = 0;     //total no. of voters\n    uint public totalVote = 0;      // total no. of votes\n    uint public totalShares = 0;\n     uint public totalShareVote = 0;\n    //admins name, wallet address and proposal are kept as public variables for everyone to see\n    address public ballotAddress;     //admin's address\n    string public ballotName;\n    string public proposal;\n    uint8 public access_level;\n\n    enum State { Created, Voting, Ended }\n    State public state;\n\n    // Declares a state variable that stores a `Voter` struct for each possible address.\n    mapping(address => Voter) public voters;\n    mapping(uint => vote) private votes;\n\n    //creates a new ballot contract\n    // admin initializes the ballot with their address and name and the ballot state is set to created.\n    constructor ( string memory _ballotName, string memory _proposal, uint8 _access_level ) public {\n        ballotAddress = msg.sender;\n        ballotName = _ballotName;\n        proposal = _proposal;\n        access_level = _access_level;\n        state = State.Created;\n    }\n\n    modifier inState(State _state) {\n        require(state == _state,\n            \"Not the correct state for the operation\");\n        _;\n    }\n\n    event voterAdded(address voter);\n    event voteStarted();\n    event voteEnded(uint finalResult);\n    event voteDone(address voter);\n\n    function register_user(address _userAddress, uint _shares_held, bool _manager, bool _director) public\n    inState(State.Created)   positiveSharesHeld(_shares_held) onlySelf(_userAddress) {\n    Voter storage voter = voters[_userAddress];\n    uint8 _user_level = 1;\n    // Check that the Voter did not already exist:\n    require(\n        !voter.set,\n        \"Voter already exists\"\n        );\n    //Define user prviliges\n    if ( _manager == true ) {\n        _user_level = 3;\n    }\n    if ( _director == true ) {\n        _user_level = 5;\n    }\n    //Store the Voter\n    voters[_userAddress] = Voter({\n        shares_held: _shares_held,\n        voted: false,\n        proxy: address(0),\n        user_level: _user_level,\n        set: true\n    });\n    totalShares = totalShares + _shares_held;\n    totalVoter++;\n    emit voterAdded(_userAddress);\n}\n    modifier positiveSharesHeld (uint _shares_held) {\n        require(\n        _shares_held > 0,\n        \"User must have shares in the company\"\n        );\n        _;\n    }\n\n    modifier onlySelf(address _userAddress) {\n        require(msg.sender == _userAddress,\n        \"A user can only register themselves\"\n        );\n        _;\n    }\n    \n    modifier onlyAdmin() {\n        require(msg.sender ==ballotAddress,\n            \"This operation can only be carried out by a user themselves\"\n            );\n        _;\n    }\n    \n    modifier votedOnce(bool voted) {\n        require (voted == false,\n        \"User has already voted once\"\n        );\n        _;\n    }\n    \n\n    function assign_proxy(address to) public\n    inState(State.Created)\n    {\n         // assigns reference\n        Voter storage sender = voters[msg.sender];\n        require(!sender.voted, \"You already voted.\");\n        require(voters[to].set == true, \"Proxy Voter must be registered voter.\");\n        require(to != msg.sender, \"Self-delegation is disallowed.\");\n\n        // Forward the delegation as long as\n        // `to` also delegated.\n        while (voters[to].proxy != address(0)) {\n            to = voters[to].proxy;\n\n            // A loop in the delegation, not allowed.\n            require(to != msg.sender, \"Found loop in delegation.\");\n        }\n        sender.voted = true;\n        sender.proxy = to;\n        Voter storage proxy_ = voters[to];\n        proxy_.shares_held += sender.shares_held;\n    }\n\n\n\n    // add shares to voters profile\n    function add_shares(uint _shares_added) public\n    inState(State.Created)\n    {\n        Voter storage sender = voters[msg.sender];\n        if (_shares_added >= 0)\n        {\n            sender.shares_held += _shares_added;\n        }\n        address _delegate = msg.sender;\n        while (voters[_delegate].proxy != address(0)) {\n            _delegate = voters[_delegate].proxy;\n            voters[_delegate].shares_held += _shares_added;\n            // We found a loop in the delegation, not allowed.\n            require(_delegate != msg.sender, \"Found loop in delegation.\");\n        }\n        totalShares = totalShares + _shares_added;\n    }\n\n    // view shares held by sender\n    function view_shares() public view\n    returns (uint shares_)\n    {\n        shares_ = voters[msg.sender].shares_held;\n    }\n\n    function startVote() public inState(State.Created) onlyAdmin\n    {\n        state = State.Voting;\n        emit voteStarted();\n    }\n\n    function Vote(bool _choice) public inState(State.Voting) votedOnce(voters[msg.sender].voted) returns (bool voted)\n    {\n        bool found = false;\n\n        if ((voters[msg.sender].set) &&\n        (voters[msg.sender].proxy == address(0)) &&\n        voters[msg.sender].user_level >= access_level)\n        {\n            voters[msg.sender].voted = true;\n            vote memory v;\n            v.voterAddress = msg.sender;\n            v.choice = _choice;\n            if (_choice){\n                countResult+=voters[msg.sender].shares_held; //counting on the go\n            }\n            votes[totalShareVote] = v;\n            totalShareVote+=voters[msg.sender].shares_held;\n            totalVote++;\n            found = true;\n        }\n        emit voteDone(msg.sender);\n        return found;\n    }\n\n    function endVote() public inState(State.Voting) onlyAdmin()\n    {\n        state = State.Ended;\n        //finalResult = countResult; //move result from private countResult to public finalResult\n        if (countResult > (totalShareVote/2))\n        {\n            finalResult = 2; //more agree\n        } else if (countResult < (totalShareVote/2)) {\n            finalResult = 1; //more disagree\n        }// else finalResult = 0 //tie\n        emit voteEnded(finalResult);\n    }\n}\n",
  "sourcePath": "/Users/anmolrastogi/Documents/Blockchain/project/CorporateGovernance/corporateGovernance-contract/contracts/ballot.sol",
  "compiler": {
    "name": "solc",
    "version": "0.5.8+commit.23d335f2.Emscripten.clang"
  },
  "schemaVersion": "3.0.16",
  "updatedAt": "2019-11-25T20:57:25.831Z",
  "devdoc": {
    "methods": {}
  },
  "userdoc": {
    "methods": {}
  }
}